{
  "contractName": "DBank",
  "abi": [
    {
      "inputs": [
        {
          "internalType": "contract Token",
          "name": "_token",
          "type": "address"
        }
      ],
      "stateMutability": "nonpayable",
      "type": "constructor"
    },
    {
      "anonymous": false,
      "inputs": [
        {
          "indexed": true,
          "internalType": "address",
          "name": "user",
          "type": "address"
        },
        {
          "indexed": false,
          "internalType": "uint256",
          "name": "etherAmount",
          "type": "uint256"
        },
        {
          "indexed": false,
          "internalType": "uint256",
          "name": "timeStart",
          "type": "uint256"
        }
      ],
      "name": "Deposit",
      "type": "event"
    },
    {
      "anonymous": false,
      "inputs": [
        {
          "indexed": true,
          "internalType": "address",
          "name": "user",
          "type": "address"
        },
        {
          "indexed": false,
          "internalType": "uint256",
          "name": "etherAmount",
          "type": "uint256"
        },
        {
          "indexed": false,
          "internalType": "uint256",
          "name": "timeStart",
          "type": "uint256"
        },
        {
          "indexed": false,
          "internalType": "uint256",
          "name": "interest",
          "type": "uint256"
        }
      ],
      "name": "Withdraw",
      "type": "event"
    },
    {
      "inputs": [
        {
          "internalType": "address",
          "name": "",
          "type": "address"
        }
      ],
      "name": "balance",
      "outputs": [
        {
          "internalType": "uint256",
          "name": "",
          "type": "uint256"
        }
      ],
      "stateMutability": "view",
      "type": "function",
      "constant": true
    },
    {
      "inputs": [
        {
          "internalType": "address",
          "name": "",
          "type": "address"
        }
      ],
      "name": "depositStart",
      "outputs": [
        {
          "internalType": "uint256",
          "name": "",
          "type": "uint256"
        }
      ],
      "stateMutability": "view",
      "type": "function",
      "constant": true
    },
    {
      "inputs": [
        {
          "internalType": "address",
          "name": "",
          "type": "address"
        }
      ],
      "name": "isDeposited",
      "outputs": [
        {
          "internalType": "bool",
          "name": "",
          "type": "bool"
        }
      ],
      "stateMutability": "view",
      "type": "function",
      "constant": true
    },
    {
      "stateMutability": "payable",
      "type": "receive",
      "payable": true
    },
    {
      "inputs": [],
      "name": "deposit",
      "outputs": [],
      "stateMutability": "payable",
      "type": "function",
      "payable": true
    },
    {
      "inputs": [],
      "name": "withdraw",
      "outputs": [],
      "stateMutability": "nonpayable",
      "type": "function"
    },
    {
      "inputs": [],
      "name": "borrow",
      "outputs": [],
      "stateMutability": "payable",
      "type": "function",
      "payable": true
    },
    {
      "inputs": [],
      "name": "payOff",
      "outputs": [],
      "stateMutability": "nonpayable",
      "type": "function"
    }
  ],
  "bytecode": "0x608060405234801561001057600080fd5b50604051610d5b380380610d5b833981810160405281019061003291906100ed565b806000806101000a81548173ffffffffffffffffffffffffffffffffffffffff021916908373ffffffffffffffffffffffffffffffffffffffff1602179055505061011a565b600080fd5b600073ffffffffffffffffffffffffffffffffffffffff82169050919050565b60006100a88261007d565b9050919050565b60006100ba8261009d565b9050919050565b6100ca816100af565b81146100d557600080fd5b50565b6000815190506100e7816100c1565b92915050565b60006020828403121561010357610102610078565b5b6000610111848285016100d8565b91505092915050565b610c32806101296000396000f3fe6080604052600436106100745760003560e01c8063d0e30db01161004e578063d0e30db0146100eb578063e3d670d7146100f5578063e68d356914610132578063ff87930a1461013c5761007b565b80633ccfd60b146100805780633fac68d51461009757806373732024146100ae5761007b565b3661007b57005b600080fd5b34801561008c57600080fd5b50610095610179565b005b3480156100a357600080fd5b506100ac61051b565b005b3480156100ba57600080fd5b506100d560048036038101906100d09190610805565b61051d565b6040516100e2919061084d565b60405180910390f35b6100f361053d565b005b34801561010157600080fd5b5061011c60048036038101906101179190610805565b610770565b6040516101299190610881565b60405180910390f35b61013a610788565b005b34801561014857600080fd5b50610163600480360381019061015e9190610805565b61078a565b6040516101709190610881565b60405180910390f35b600360003373ffffffffffffffffffffffffffffffffffffffff1673ffffffffffffffffffffffffffffffffffffffff16815260200190815260200160002060009054906101000a900460ff16610205576040517f08c379a00000000000000000000000000000000000000000000000000000000081526004016101fc906108f9565b60405180910390fd5b6000600160003373ffffffffffffffffffffffffffffffffffffffff1673ffffffffffffffffffffffffffffffffffffffff1681526020019081526020016000205490506000600260003373ffffffffffffffffffffffffffffffffffffffff1673ffffffffffffffffffffffffffffffffffffffff16815260200190815260200160002054426102969190610948565b90506000662386f26fc10000600160003373ffffffffffffffffffffffffffffffffffffffff1673ffffffffffffffffffffffffffffffffffffffff168152602001908152602001600020546102ec91906109ab565b6301e337316102fb91906109dc565b90506000828261030b91906109dc565b905060008054906101000a900473ffffffffffffffffffffffffffffffffffffffff1673ffffffffffffffffffffffffffffffffffffffff166340c10f1933836040518363ffffffff1660e01b8152600401610368929190610a45565b600060405180830381600087803b15801561038257600080fd5b505af1158015610396573d6000803e3d6000fd5b505050503373ffffffffffffffffffffffffffffffffffffffff166108fc859081150290604051600060405180830381858888f193505050501580156103e0573d6000803e3d6000fd5b506000600160003373ffffffffffffffffffffffffffffffffffffffff1673ffffffffffffffffffffffffffffffffffffffff168152602001908152602001600020819055506000600260003373ffffffffffffffffffffffffffffffffffffffff1673ffffffffffffffffffffffffffffffffffffffff168152602001908152602001600020819055506000600360003373ffffffffffffffffffffffffffffffffffffffff1673ffffffffffffffffffffffffffffffffffffffff16815260200190815260200160002060006101000a81548160ff0219169083151502179055503373ffffffffffffffffffffffffffffffffffffffff167f02f25270a4d87bea75db541cdfe559334a275b4a233520ed6c0a2429667cca9485428460405161050d93929190610a6e565b60405180910390a250505050565b565b60036020528060005260406000206000915054906101000a900460ff1681565b60001515600360003373ffffffffffffffffffffffffffffffffffffffff1673ffffffffffffffffffffffffffffffffffffffff16815260200190815260200160002060009054906101000a900460ff161515146105d0576040517f08c379a00000000000000000000000000000000000000000000000000000000081526004016105c790610af1565b60405180910390fd5b662386f26fc1000034101561061a576040517f08c379a000000000000000000000000000000000000000000000000000000000815260040161061190610b5d565b60405180910390fd5b34600160003373ffffffffffffffffffffffffffffffffffffffff1673ffffffffffffffffffffffffffffffffffffffff16815260200190815260200160002060008282546106699190610b7d565b9250508190555042600260003373ffffffffffffffffffffffffffffffffffffffff1673ffffffffffffffffffffffffffffffffffffffff16815260200190815260200160002060008282546106bf9190610b7d565b925050819055506001600360003373ffffffffffffffffffffffffffffffffffffffff1673ffffffffffffffffffffffffffffffffffffffff16815260200190815260200160002060006101000a81548160ff0219169083151502179055503373ffffffffffffffffffffffffffffffffffffffff167f90890809c654f11d6e72a28fa60149770a0d11ec6c92319d6ceb2bb0a4ea1a153442604051610766929190610bd3565b60405180910390a2565b60016020528060005260406000206000915090505481565b565b60026020528060005260406000206000915090505481565b600080fd5b600073ffffffffffffffffffffffffffffffffffffffff82169050919050565b60006107d2826107a7565b9050919050565b6107e2816107c7565b81146107ed57600080fd5b50565b6000813590506107ff816107d9565b92915050565b60006020828403121561081b5761081a6107a2565b5b6000610829848285016107f0565b91505092915050565b60008115159050919050565b61084781610832565b82525050565b6000602082019050610862600083018461083e565b92915050565b6000819050919050565b61087b81610868565b82525050565b60006020820190506108966000830184610872565b92915050565b600082825260208201905092915050565b7f4572726f722c206465706f73697420646f65736e277420657869737400000000600082015250565b60006108e3601c8361089c565b91506108ee826108ad565b602082019050919050565b60006020820190508181036000830152610912816108d6565b9050919050565b7f4e487b7100000000000000000000000000000000000000000000000000000000600052601160045260246000fd5b600061095382610868565b915061095e83610868565b92508282101561097157610970610919565b5b828203905092915050565b7f4e487b7100000000000000000000000000000000000000000000000000000000600052601260045260246000fd5b60006109b682610868565b91506109c183610868565b9250826109d1576109d061097c565b5b828204905092915050565b60006109e782610868565b91506109f283610868565b9250817fffffffffffffffffffffffffffffffffffffffffffffffffffffffffffffffff0483118215151615610a2b57610a2a610919565b5b828202905092915050565b610a3f816107c7565b82525050565b6000604082019050610a5a6000830185610a36565b610a676020830184610872565b9392505050565b6000606082019050610a836000830186610872565b610a906020830185610872565b610a9d6040830184610872565b949350505050565b7f596f7520616c7265616479206465706f7369742066756e647300000000000000600082015250565b6000610adb60198361089c565b9150610ae682610aa5565b602082019050919050565b60006020820190508181036000830152610b0a81610ace565b9050919050565b7f4d696e696d756e20616d6f756e7420697320302e303120455448000000000000600082015250565b6000610b47601a8361089c565b9150610b5282610b11565b602082019050919050565b60006020820190508181036000830152610b7681610b3a565b9050919050565b6000610b8882610868565b9150610b9383610868565b9250827fffffffffffffffffffffffffffffffffffffffffffffffffffffffffffffffff03821115610bc857610bc7610919565b5b828201905092915050565b6000604082019050610be86000830185610872565b610bf56020830184610872565b939250505056fea26469706673582212205af2d2536f044d770fc3083cc7dfcd1447187fb23aa6ecc86a65cf53e4e412ad64736f6c634300080d0033",
  "immutableReferences": {},
  "source": "// SPDX-License-Identifier: MIT\npragma solidity ^0.8.0;\n\nimport './Token.sol';\n\ncontract DBank {\n    Token private token;\n    // 31668017 -interest(10% APY) per second (seconds in 365.25 days);\n\n    mapping(address => uint) public balance;\n    mapping(address => uint) public depositStart;\n    mapping(address => bool) public isDeposited;\n\n     //add events\n    event Deposit(address indexed user, uint256 etherAmount, uint256 timeStart);\n    event Withdraw(\n        address indexed user,\n        uint256 etherAmount,\n        uint256 timeStart,\n        uint256 interest\n    );\n\n    constructor(Token _token)  {\n        token = _token;\n     }\n\n    receive() external payable {}\n\n    function deposit() public payable {\n        require(isDeposited[msg.sender] == false, \"You already deposit funds\");\n        require(msg.value >=  0.01 ether, \"Minimun amount is 0.01 ETH\");\n        balance[msg.sender] += msg.value;\n        depositStart[msg.sender] += block.timestamp;\n        isDeposited[msg.sender] = true;\n        emit Deposit(msg.sender, msg.value, block.timestamp);\n    }\n\n    function withdraw() public {\n        require(isDeposited[msg.sender],  \"Error, deposit doesn't exist\" );\n        //assign msg.sender ether deposit balance to variable for event\n        uint userBalance = balance[msg.sender];\n        //check user's hodl time\n        uint depositTime = block.timestamp - depositStart[msg.sender];\n         //calc interest per second\n        uint256 interestPerSecond = 31668017 * (balance[msg.sender] / 1e16); \n         //calc accrued interest\n        uint256 interest = interestPerSecond * depositTime;\n\n        //send interest in tokens to user \n        token.mint(msg.sender, interest);\n\n        //send eth to user\n        payable(msg.sender).transfer(userBalance);\n\n        //reset depositer ether balance\n        balance[msg.sender] = 0;\n        depositStart[msg.sender]= 0;\n        isDeposited[msg.sender] = false;\n        //emit event\n        emit Withdraw(msg.sender, userBalance, block.timestamp, interest);\n    }\n\n    function borrow() public payable {\n        //check if collateral is >= than 0.01 ETH\n        //check if user doesn't have active loan\n        //add msg.value to ether collateral\n        //calc tokens amount to mint, 50% of msg.value\n        //mint&send tokens to user\n        //activate borrower's loan status\n        //emit event\n    }\n\n    function payOff() public {\n        //check if loan is active\n        //transfer tokens from user back to the contract\n        //calc fee\n        //send user's collateral minus fee\n        //reset borrower's data\n        //emit event\n    }\n}",
  "sourcePath": "/Users/danielancuta/Development/blockchain/truffle-react-dbank-app/src/contracts/DBank.sol",
  "compiler": {
    "name": "solc",
    "version": "0.8.13+commit.abaa5c0e.Emscripten.clang"
  },
  "schemaVersion": "3.4.10",
  "updatedAt": "2022-09-29T18:30:38.775Z",
  "networkType": "ethereum",
  "devdoc": {
    "kind": "dev",
    "methods": {},
    "version": 1
  },
  "userdoc": {
    "kind": "user",
    "methods": {},
    "version": 1
  }
}